{
  "contractName": "ZombieHelper",
  "abi": [
    {
      "constant": false,
      "inputs": [
        {
          "name": "_zombieId",
          "type": "uint256"
        },
        {
          "name": "_kittyId",
          "type": "uint256"
        }
      ],
      "name": "feedOnKitty",
      "outputs": [],
      "payable": false,
      "stateMutability": "nonpayable",
      "type": "function"
    },
    {
      "constant": true,
      "inputs": [
        {
          "name": "",
          "type": "uint256"
        }
      ],
      "name": "zombies",
      "outputs": [
        {
          "name": "name",
          "type": "string"
        },
        {
          "name": "dna",
          "type": "uint256"
        },
        {
          "name": "level",
          "type": "uint32"
        },
        {
          "name": "readyTime",
          "type": "uint32"
        },
        {
          "name": "winCount",
          "type": "uint16"
        },
        {
          "name": "lossCount",
          "type": "uint16"
        }
      ],
      "payable": false,
      "stateMutability": "view",
      "type": "function"
    },
    {
      "constant": true,
      "inputs": [
        {
          "name": "_zombieId",
          "type": "uint256"
        }
      ],
      "name": "isReady",
      "outputs": [
        {
          "name": "",
          "type": "bool"
        }
      ],
      "payable": false,
      "stateMutability": "view",
      "type": "function"
    },
    {
      "constant": true,
      "inputs": [
        {
          "name": "",
          "type": "uint256"
        }
      ],
      "name": "zombieToOwner",
      "outputs": [
        {
          "name": "",
          "type": "address"
        }
      ],
      "payable": false,
      "stateMutability": "view",
      "type": "function"
    },
    {
      "constant": false,
      "inputs": [
        {
          "name": "_address",
          "type": "address"
        }
      ],
      "name": "setKittyContractAddress",
      "outputs": [],
      "payable": false,
      "stateMutability": "nonpayable",
      "type": "function"
    },
    {
      "constant": true,
      "inputs": [
        {
          "name": "_str",
          "type": "string"
        }
      ],
      "name": "generateRandomDna",
      "outputs": [
        {
          "name": "",
          "type": "uint256"
        }
      ],
      "payable": false,
      "stateMutability": "view",
      "type": "function"
    },
    {
      "constant": false,
      "inputs": [
        {
          "name": "_zombieId",
          "type": "uint256"
        },
        {
          "name": "_targetDna",
          "type": "uint256"
        },
        {
          "name": "_species",
          "type": "string"
        }
      ],
      "name": "feedAndMultiply",
      "outputs": [],
      "payable": false,
      "stateMutability": "nonpayable",
      "type": "function"
    },
    {
      "constant": false,
      "inputs": [],
      "name": "renounceOwnership",
      "outputs": [],
      "payable": false,
      "stateMutability": "nonpayable",
      "type": "function"
    },
    {
      "constant": false,
      "inputs": [
        {
          "name": "_name",
          "type": "string"
        }
      ],
      "name": "createRandomZombie",
      "outputs": [],
      "payable": false,
      "stateMutability": "nonpayable",
      "type": "function"
    },
    {
      "constant": true,
      "inputs": [],
      "name": "owner",
      "outputs": [
        {
          "name": "",
          "type": "address"
        }
      ],
      "payable": false,
      "stateMutability": "view",
      "type": "function"
    },
    {
      "constant": true,
      "inputs": [],
      "name": "isOwner",
      "outputs": [
        {
          "name": "",
          "type": "bool"
        }
      ],
      "payable": false,
      "stateMutability": "view",
      "type": "function"
    },
    {
      "constant": true,
      "inputs": [],
      "name": "levelUpFee",
      "outputs": [
        {
          "name": "",
          "type": "uint256"
        }
      ],
      "payable": false,
      "stateMutability": "view",
      "type": "function"
    },
    {
      "constant": false,
      "inputs": [
        {
          "name": "newOwner",
          "type": "address"
        }
      ],
      "name": "transferOwnership",
      "outputs": [],
      "payable": false,
      "stateMutability": "nonpayable",
      "type": "function"
    },
    {
      "anonymous": false,
      "inputs": [
        {
          "indexed": false,
          "name": "zombieId",
          "type": "uint256"
        },
        {
          "indexed": false,
          "name": "name",
          "type": "string"
        },
        {
          "indexed": false,
          "name": "dna",
          "type": "uint256"
        }
      ],
      "name": "NewZombie",
      "type": "event"
    },
    {
      "anonymous": false,
      "inputs": [
        {
          "indexed": true,
          "name": "previousOwner",
          "type": "address"
        },
        {
          "indexed": true,
          "name": "newOwner",
          "type": "address"
        }
      ],
      "name": "OwnershipTransferred",
      "type": "event"
    },
    {
      "constant": false,
      "inputs": [],
      "name": "withdraw",
      "outputs": [],
      "payable": false,
      "stateMutability": "nonpayable",
      "type": "function"
    },
    {
      "constant": true,
      "inputs": [],
      "name": "getThisBalance",
      "outputs": [
        {
          "name": "",
          "type": "uint256"
        }
      ],
      "payable": false,
      "stateMutability": "view",
      "type": "function"
    },
    {
      "constant": false,
      "inputs": [
        {
          "name": "_fee",
          "type": "uint256"
        }
      ],
      "name": "setLevelUpFee",
      "outputs": [],
      "payable": false,
      "stateMutability": "nonpayable",
      "type": "function"
    },
    {
      "constant": false,
      "inputs": [
        {
          "name": "_zombieId",
          "type": "uint256"
        }
      ],
      "name": "levelUp",
      "outputs": [],
      "payable": true,
      "stateMutability": "payable",
      "type": "function"
    },
    {
      "constant": false,
      "inputs": [
        {
          "name": "_zombieId",
          "type": "uint256"
        },
        {
          "name": "_newName",
          "type": "string"
        }
      ],
      "name": "changeName",
      "outputs": [],
      "payable": false,
      "stateMutability": "nonpayable",
      "type": "function"
    },
    {
      "constant": false,
      "inputs": [
        {
          "name": "_zombieId",
          "type": "uint256"
        },
        {
          "name": "_newDna",
          "type": "uint256"
        }
      ],
      "name": "changeDna",
      "outputs": [],
      "payable": false,
      "stateMutability": "nonpayable",
      "type": "function"
    },
    {
      "constant": true,
      "inputs": [
        {
          "name": "_owner",
          "type": "address"
        }
      ],
      "name": "getZombiesByOwner",
      "outputs": [
        {
          "name": "",
          "type": "uint256[]"
        }
      ],
      "payable": false,
      "stateMutability": "view",
      "type": "function"
    }
  ],
  "bytecode": "0x60806040526010600155600154600a0a600255601e60035566038d7ea4c68000600855336000806101000a81548173ffffffffffffffffffffffffffffffffffffffff021916908373ffffffffffffffffffffffffffffffffffffffff1602179055506000809054906101000a900473ffffffffffffffffffffffffffffffffffffffff1673ffffffffffffffffffffffffffffffffffffffff16600073ffffffffffffffffffffffffffffffffffffffff167f8be0079c531659141344cd1fd0a4f28419497f9722a3daafe3b4186f6b6457e060405160405180910390a3611d1e806100ed6000396000f3fe60806040526004361061011f5760003560e01c80636b0bfc80116100a05780638f32d59b116100645780638f32d59b146107d0578063c39cbef1146107ff578063c4114b121461088f578063ccf670f8146108ba578063f2fde38b146108f55761011f565b80636b0bfc8014610593578063715018a61461066f5780637bff0a01146106865780638da5cb5b1461074e5780638e8cf4a8146107a55761011f565b806350df8f71116100e757806350df8f7114610353578063528b7b8f146103a65780635f4623f1146104215780635faf2880146104725780636989bb4d146104b75761011f565b80630ce90ec21461012457806317a7f4cc146101525780632052465e146101975780633ccfd60b146102965780634412e104146102ad575b600080fd5b6101506004803603602081101561013a57600080fd5b8101908080359060200190929190505050610946565b005b34801561015e57600080fd5b506101956004803603604081101561017557600080fd5b8101908080359060200190929190803590602001909291905050506109db565b005b3480156101a357600080fd5b506101d0600480360360208110156101ba57600080fd5b8101908080359060200190929190505050610b66565b60405180806020018781526020018663ffffffff1663ffffffff1681526020018563ffffffff1663ffffffff1681526020018461ffff1661ffff1681526020018361ffff1661ffff168152602001828103825288818151815260200191508051906020019080838360005b8381101561025657808201518184015260208101905061023b565b50505050905090810190601f1680156102835780820380516001836020036101000a031916815260200191505b5097505050505050505060405180910390f35b3480156102a257600080fd5b506102ab610c83565b005b3480156102b957600080fd5b506102fc600480360360208110156102d057600080fd5b81019080803573ffffffffffffffffffffffffffffffffffffffff169060200190929190505050610d6a565b6040518080602001828103825283818151815260200191508051906020019060200280838360005b8381101561033f578082015181840152602081019050610324565b505050509050019250505060405180910390f35b34801561035f57600080fd5b5061038c6004803603602081101561037657600080fd5b8101908080359060200190929190505050610e9e565b604051808215151515815260200191505060405180910390f35b3480156103b257600080fd5b506103df600480360360208110156103c957600080fd5b8101908080359060200190929190505050610f37565b604051808273ffffffffffffffffffffffffffffffffffffffff1673ffffffffffffffffffffffffffffffffffffffff16815260200191505060405180910390f35b34801561042d57600080fd5b506104706004803603602081101561044457600080fd5b81019080803573ffffffffffffffffffffffffffffffffffffffff169060200190929190505050610f6a565b005b34801561047e57600080fd5b506104b56004803603604081101561049557600080fd5b810190808035906020019092919080359060200190929190505050611028565b005b3480156104c357600080fd5b5061057d600480360360208110156104da57600080fd5b81019080803590602001906401000000008111156104f757600080fd5b82018360208201111561050957600080fd5b8035906020019184600183028401116401000000008311171561052b57600080fd5b91908080601f016020809104026020016040519081016040528093929190818152602001838380828437600081840152601f19601f820116905080830192505050505050509192919290505050611102565b6040518082815260200191505060405180910390f35b34801561059f57600080fd5b5061066d600480360360608110156105b657600080fd5b810190808035906020019092919080359060200190929190803590602001906401000000008111156105e757600080fd5b8201836020820111156105f957600080fd5b8035906020019184600183028401116401000000008311171561061b57600080fd5b91908080601f016020809104026020016040519081016040528093929190818152602001838380828437600081840152601f19601f82011690508083019250505050505050919291929050505061119f565b005b34801561067b57600080fd5b50610684611384565b005b34801561069257600080fd5b5061074c600480360360208110156106a957600080fd5b81019080803590602001906401000000008111156106c657600080fd5b8201836020820111156106d857600080fd5b803590602001918460018302840111640100000000831117156106fa57600080fd5b91908080601f016020809104026020016040519081016040528093929190818152602001838380828437600081840152601f19601f820116905080830192505050505050509192919290505050611441565b005b34801561075a57600080fd5b506107636114af565b604051808273ffffffffffffffffffffffffffffffffffffffff1673ffffffffffffffffffffffffffffffffffffffff16815260200191505060405180910390f35b3480156107b157600080fd5b506107ba6114d8565b6040518082815260200191505060405180910390f35b3480156107dc57600080fd5b506107e5611571565b604051808215151515815260200191505060405180910390f35b34801561080b57600080fd5b5061088d6004803603604081101561082257600080fd5b81019080803590602001909291908035906020019064010000000081111561084957600080fd5b82018360208201111561085b57600080fd5b8035906020019184600183028401116401000000008311171561087d57600080fd5b90919293919293905050506115c8565b005b34801561089b57600080fd5b506108a46116ae565b6040518082815260200191505060405180910390f35b3480156108c657600080fd5b506108f3600480360360208110156108dd57600080fd5b81019080803590602001909291905050506116b4565b005b34801561090157600080fd5b506109446004803603602081101561091857600080fd5b81019080803573ffffffffffffffffffffffffffffffffffffffff169060200190929190505050611738565b005b600854341461095457600080fd5b61099c60016004838154811061096657fe5b906000526020600020906003020160020160009054906101000a900463ffffffff1663ffffffff166117be90919063ffffffff16565b600482815481106109a957fe5b906000526020600020906003020160020160006101000a81548163ffffffff021916908363ffffffff16021790555050565b6000600760009054906101000a900473ffffffffffffffffffffffffffffffffffffffff1673ffffffffffffffffffffffffffffffffffffffff1663e98b7f4d836040518263ffffffff1660e01b8152600401808281526020019150506101406040518083038186803b158015610a5157600080fd5b505afa158015610a65573d6000803e3d6000fd5b505050506040513d610140811015610a7c57600080fd5b810190808051906020019092919080519060200190929190805190602001909291908051906020019092919080519060200190929190805190602001909291908051906020019092919080519060200190929190805190602001909291908051906020019092919050505090919293949596979850909192939495969750909192939495965090919293949550909192939450909192935090919250909150905080915050610b6183826040518060400160405280600581526020017f6b6974747900000000000000000000000000000000000000000000000000000081525061119f565b505050565b60048181548110610b7357fe5b9060005260206000209060030201600091509050806000018054600181600116156101000203166002900480601f016020809104026020016040519081016040528092919081815260200182805460018160011615610100020316600290048015610c1f5780601f10610bf457610100808354040283529160200191610c1f565b820191906000526020600020905b815481529060010190602001808311610c0257829003601f168201915b5050505050908060010154908060020160009054906101000a900463ffffffff16908060020160049054906101000a900463ffffffff16908060020160089054906101000a900461ffff169080600201600a9054906101000a900461ffff16905086565b610c8b611571565b610cfd576040517f08c379a00000000000000000000000000000000000000000000000000000000081526004018080602001828103825260208152602001807f4f776e61626c653a2063616c6c6572206973206e6f7420746865206f776e657281525060200191505060405180910390fd5b6000610d076114af565b90508073ffffffffffffffffffffffffffffffffffffffff166108fc3073ffffffffffffffffffffffffffffffffffffffff16319081150290604051600060405180830381858888f19350505050158015610d66573d6000803e3d6000fd5b5050565b606080610db4600660008573ffffffffffffffffffffffffffffffffffffffff1673ffffffffffffffffffffffffffffffffffffffff1681526020019081526020016000206117e6565b604051908082528060200260200182016040528015610de25781602001602082028038833980820191505090505b509050600080905060008090505b600480549050811015610e93578473ffffffffffffffffffffffffffffffffffffffff166005600083815260200190815260200160002060009054906101000a900473ffffffffffffffffffffffffffffffffffffffff1673ffffffffffffffffffffffffffffffffffffffff161415610e865780838381518110610e7157fe5b60200260200101818152505081806001019250505b8080600101915050610df0565b508192505050919050565b6000816005600082815260200190815260200160002060009054906101000a900473ffffffffffffffffffffffffffffffffffffffff1673ffffffffffffffffffffffffffffffffffffffff163373ffffffffffffffffffffffffffffffffffffffff1614610f0c57600080fd5b610f2f60048481548110610f1c57fe5b90600052602060002090600302016117f4565b915050919050565b60056020528060005260406000206000915054906101000a900473ffffffffffffffffffffffffffffffffffffffff1681565b610f72611571565b610fe4576040517f08c379a00000000000000000000000000000000000000000000000000000000081526004018080602001828103825260208152602001807f4f776e61626c653a2063616c6c6572206973206e6f7420746865206f776e657281525060200191505060405180910390fd5b80600760006101000a81548173ffffffffffffffffffffffffffffffffffffffff021916908373ffffffffffffffffffffffffffffffffffffffff16021790555050565b601482816004828154811061103957fe5b906000526020600020906003020160020160009054906101000a900463ffffffff1663ffffffff16101561106c57600080fd5b836005600082815260200190815260200160002060009054906101000a900473ffffffffffffffffffffffffffffffffffffffff1673ffffffffffffffffffffffffffffffffffffffff163373ffffffffffffffffffffffffffffffffffffffff16146110d857600080fd5b83600486815481106110e657fe5b9060005260206000209060030201600101819055505050505050565b600080826040516020018082805190602001908083835b6020831061113c5780518252602082019150602081019050602083039250611119565b6001836020036101000a0380198251168184511680821785525050505050509050019150506040516020818303038152906040528051906020012060001c90506064818161118657fe5b0681039050600254818161119657fe5b06915050919050565b826005600082815260200190815260200160002060009054906101000a900473ffffffffffffffffffffffffffffffffffffffff1673ffffffffffffffffffffffffffffffffffffffff163373ffffffffffffffffffffffffffffffffffffffff161461120b57600080fd5b60006004858154811061121a57fe5b90600052602060002090600302019050611233816117f4565b61123c57600080fd5b6000600254858161124957fe5b06905060006002828460010154018161125e57fe5b04905060405160200180807f6b69747479000000000000000000000000000000000000000000000000000000815250600501905060405160208183030381529060405280519060200120856040516020018082805190602001908083835b602083106112df57805182526020820191506020810190506020830392506112bc565b6001836020036101000a0380198251168184511680821785525050505050509050019150506040516020818303038152906040528051906020012014156113335760636064828161132c57fe5b0682030190505b6113726040518060400160405280600681526020017f4e6f4e616d6500000000000000000000000000000000000000000000000000008152508261181b565b61137b83611a9e565b50505050505050565b61138c611571565b6113fe576040517f08c379a00000000000000000000000000000000000000000000000000000000081526004018080602001828103825260208152602001807f4f776e61626c653a2063616c6c6572206973206e6f7420746865206f776e657281525060200191505060405180910390fd5b60008060006101000a81548173ffffffffffffffffffffffffffffffffffffffff021916908373ffffffffffffffffffffffffffffffffffffffff160217905550565b600061148a600660003373ffffffffffffffffffffffffffffffffffffffff1673ffffffffffffffffffffffffffffffffffffffff1681526020019081526020016000206117e6565b1461149457600080fd5b600061149f82611102565b90506114ab828261181b565b5050565b60008060009054906101000a900473ffffffffffffffffffffffffffffffffffffffff16905090565b60006114e2611571565b611554576040517f08c379a00000000000000000000000000000000000000000000000000000000081526004018080602001828103825260208152602001807f4f776e61626c653a2063616c6c6572206973206e6f7420746865206f776e657281525060200191505060405180910390fd5b3073ffffffffffffffffffffffffffffffffffffffff1631905090565b60008060009054906101000a900473ffffffffffffffffffffffffffffffffffffffff1673ffffffffffffffffffffffffffffffffffffffff163373ffffffffffffffffffffffffffffffffffffffff1614905090565b60028381600482815481106115d957fe5b906000526020600020906003020160020160009054906101000a900463ffffffff1663ffffffff16101561160c57600080fd5b846005600082815260200190815260200160002060009054906101000a900473ffffffffffffffffffffffffffffffffffffffff1673ffffffffffffffffffffffffffffffffffffffff163373ffffffffffffffffffffffffffffffffffffffff161461167857600080fd5b84846004888154811061168757fe5b906000526020600020906003020160000191906116a5929190611ba7565b50505050505050565b60085481565b6116bc611571565b61172e576040517f08c379a00000000000000000000000000000000000000000000000000000000081526004018080602001828103825260208152602001807f4f776e61626c653a2063616c6c6572206973206e6f7420746865206f776e657281525060200191505060405180910390fd5b8060088190555050565b611740611571565b6117b2576040517f08c379a00000000000000000000000000000000000000000000000000000000081526004018080602001828103825260208152602001807f4f776e61626c653a2063616c6c6572206973206e6f7420746865206f776e657281525060200191505060405180910390fd5b6117bb81611ac8565b50565b60008082840190508363ffffffff168163ffffffff1610156117dc57fe5b8091505092915050565b600081600001549050919050565b6000428260020160049054906101000a900463ffffffff1663ffffffff1611159050919050565b6000600160046040518060c00160405280868152602001858152602001600163ffffffff168152602001600354420163ffffffff168152602001600061ffff168152602001600061ffff168152509080600181540180825580915050906001820390600052602060002090600302016000909192909190915060008201518160000190805190602001906118b0929190611c27565b506020820151816001015560408201518160020160006101000a81548163ffffffff021916908363ffffffff16021790555060608201518160020160046101000a81548163ffffffff021916908363ffffffff16021790555060808201518160020160086101000a81548161ffff021916908361ffff16021790555060a082015181600201600a6101000a81548161ffff021916908361ffff1602179055505050039050336005600083815260200190815260200160002060006101000a81548173ffffffffffffffffffffffffffffffffffffffff021916908373ffffffffffffffffffffffffffffffffffffffff1602179055506119ed600660003373ffffffffffffffffffffffffffffffffffffffff1673ffffffffffffffffffffffffffffffffffffffff168152602001908152602001600020611b91565b7f88f026aacbbecc90c18411df4b1185fd8d9be2470f1962f192bf84a27d0704b78184846040518084815260200180602001838152602001828103825284818151815260200191508051906020019080838360005b83811015611a5d578082015181840152602081019050611a42565b50505050905090810190601f168015611a8a5780820380516001836020036101000a031916815260200191505b5094505050505060405180910390a1505050565b60035442018160020160046101000a81548163ffffffff021916908363ffffffff16021790555050565b600073ffffffffffffffffffffffffffffffffffffffff168173ffffffffffffffffffffffffffffffffffffffff161415611b4e576040517f08c379a0000000000000000000000000000000000000000000000000000000008152600401808060200182810382526026815260200180611ccd6026913960400191505060405180910390fd5b806000806101000a81548173ffffffffffffffffffffffffffffffffffffffff021916908373ffffffffffffffffffffffffffffffffffffffff16021790555050565b6001816000016000828254019250508190555050565b828054600181600116156101000203166002900490600052602060002090601f016020900481019282601f10611be857803560ff1916838001178555611c16565b82800160010185558215611c16579182015b82811115611c15578235825591602001919060010190611bfa565b5b509050611c239190611ca7565b5090565b828054600181600116156101000203166002900490600052602060002090601f016020900481019282601f10611c6857805160ff1916838001178555611c96565b82800160010185558215611c96579182015b82811115611c95578251825591602001919060010190611c7a565b5b509050611ca39190611ca7565b5090565b611cc991905b80821115611cc5576000816000905550600101611cad565b5090565b9056fe4f776e61626c653a206e6577206f776e657220697320746865207a65726f2061646472657373a165627a7a72305820ce7b34143ec8101192d7093612e86b8abdcec4633ffc385fa23ce94d7dbedc790029",
  "source": "pragma solidity ^0.5.0;\n\nimport \"./zombiefeeding.sol\";\n\ncontract ZombieHelper is ZombieFeeding {\n\n  uint public levelUpFee = 0.001 ether;\n\n  modifier aboveLevel(uint _level, uint _zombieId) {\n    require(zombies[_zombieId].level >= _level);\n    _;\n  }\n\n  function withdraw() external onlyOwner {\n    address payable _owner = address(uint160(owner()));\n    _owner.transfer(address(this).balance);\n  }\n\n  function getThisBalance() external view onlyOwner returns (uint){\n    return address(this).balance;\n  }\n\n  function setLevelUpFee(uint _fee) external onlyOwner {\n    levelUpFee = _fee;\n  }\n\n  function levelUp(uint _zombieId) external payable {\n    require(msg.value == levelUpFee);\n    // increment it\n    zombies[_zombieId].level = zombies[_zombieId].level.add(1);\n  }\n\n  function changeName(uint _zombieId, string calldata _newName) external aboveLevel(2, _zombieId) onlyOwnerOf(_zombieId) {\n    zombies[_zombieId].name = _newName;\n  }\n\n  function changeDna(uint _zombieId, uint _newDna) external aboveLevel(20, _zombieId) onlyOwnerOf(_zombieId) {\n    zombies[_zombieId].dna = _newDna;\n  }\n\n  function getZombiesByOwner(address _owner) external view returns(uint[] memory) {\n    uint[] memory result = new uint[](ownerZombieCount[_owner].current());\n    uint counter = 0;\n    for (uint i = 0; i < zombies.length; i++) {\n      if (zombieToOwner[i] == _owner) {\n        result[counter] = i;\n        counter++;\n      }\n    }\n    return result;\n  }\n}\n",
  "sourcePath": "/Users/cobaltsato/Desktop/blockchainCodeCamp/chapter15/truffle/contracts/zombiehelper.sol",
  "compiler": {
    "name": "solc",
    "version": "0.5.8+commit.23d335f2.Emscripten.clang"
  },
  "schemaVersion": "3.0.11",
  "updatedAt": "2019-08-25T10:26:29.024Z",
  "devdoc": {
    "methods": {
      "isOwner()": {
        "details": "Returns true if the caller is the current owner."
      },
      "owner()": {
        "details": "Returns the address of the current owner."
      },
      "renounceOwnership()": {
        "details": "Leaves the contract without owner. It will not be possible to call `onlyOwner` functions anymore. Can only be called by the current owner.     * NOTE: Renouncing ownership will leave the contract without an owner, thereby removing any functionality that is only available to the owner."
      },
      "transferOwnership(address)": {
        "details": "Transfers ownership of the contract to a new account (`newOwner`). Can only be called by the current owner."
      }
    }
  },
  "userdoc": {
    "methods": {}
  }
}