{
  "contractName": "ZombieOwnership",
  "abi": [
    {
      "constant": true,
      "inputs": [
        {
          "name": "interfaceId",
          "type": "bytes4"
        }
      ],
      "name": "supportsInterface",
      "outputs": [
        {
          "name": "",
          "type": "bool"
        }
      ],
      "payable": false,
      "stateMutability": "view",
      "type": "function"
    },
    {
      "constant": false,
      "inputs": [
        {
          "name": "_zombieId",
          "type": "uint256"
        }
      ],
      "name": "levelUp",
      "outputs": [],
      "payable": true,
      "stateMutability": "payable",
      "type": "function"
    },
    {
      "constant": false,
      "inputs": [
        {
          "name": "_zombieId",
          "type": "uint256"
        },
        {
          "name": "_kittyId",
          "type": "uint256"
        }
      ],
      "name": "feedOnKitty",
      "outputs": [],
      "payable": false,
      "stateMutability": "nonpayable",
      "type": "function"
    },
    {
      "constant": true,
      "inputs": [
        {
          "name": "",
          "type": "uint256"
        }
      ],
      "name": "zombies",
      "outputs": [
        {
          "name": "name",
          "type": "string"
        },
        {
          "name": "dna",
          "type": "uint256"
        },
        {
          "name": "level",
          "type": "uint32"
        },
        {
          "name": "readyTime",
          "type": "uint32"
        },
        {
          "name": "winCount",
          "type": "uint16"
        },
        {
          "name": "lossCount",
          "type": "uint16"
        }
      ],
      "payable": false,
      "stateMutability": "view",
      "type": "function"
    },
    {
      "constant": false,
      "inputs": [],
      "name": "withdraw",
      "outputs": [],
      "payable": false,
      "stateMutability": "nonpayable",
      "type": "function"
    },
    {
      "constant": true,
      "inputs": [
        {
          "name": "_owner",
          "type": "address"
        }
      ],
      "name": "getZombiesByOwner",
      "outputs": [
        {
          "name": "",
          "type": "uint256[]"
        }
      ],
      "payable": false,
      "stateMutability": "view",
      "type": "function"
    },
    {
      "constant": true,
      "inputs": [
        {
          "name": "_zombieId",
          "type": "uint256"
        }
      ],
      "name": "isReady",
      "outputs": [
        {
          "name": "",
          "type": "bool"
        }
      ],
      "payable": false,
      "stateMutability": "view",
      "type": "function"
    },
    {
      "constant": true,
      "inputs": [
        {
          "name": "",
          "type": "uint256"
        }
      ],
      "name": "zombieToOwner",
      "outputs": [
        {
          "name": "",
          "type": "address"
        }
      ],
      "payable": false,
      "stateMutability": "view",
      "type": "function"
    },
    {
      "constant": false,
      "inputs": [
        {
          "name": "_address",
          "type": "address"
        }
      ],
      "name": "setKittyContractAddress",
      "outputs": [],
      "payable": false,
      "stateMutability": "nonpayable",
      "type": "function"
    },
    {
      "constant": false,
      "inputs": [
        {
          "name": "_zombieId",
          "type": "uint256"
        },
        {
          "name": "_newDna",
          "type": "uint256"
        }
      ],
      "name": "changeDna",
      "outputs": [],
      "payable": false,
      "stateMutability": "nonpayable",
      "type": "function"
    },
    {
      "constant": true,
      "inputs": [
        {
          "name": "_str",
          "type": "string"
        }
      ],
      "name": "generateRandomDna",
      "outputs": [
        {
          "name": "",
          "type": "uint256"
        }
      ],
      "payable": false,
      "stateMutability": "view",
      "type": "function"
    },
    {
      "constant": false,
      "inputs": [
        {
          "name": "_zombieId",
          "type": "uint256"
        },
        {
          "name": "_targetDna",
          "type": "uint256"
        },
        {
          "name": "_species",
          "type": "string"
        }
      ],
      "name": "feedAndMultiply",
      "outputs": [],
      "payable": false,
      "stateMutability": "nonpayable",
      "type": "function"
    },
    {
      "constant": false,
      "inputs": [],
      "name": "renounceOwnership",
      "outputs": [],
      "payable": false,
      "stateMutability": "nonpayable",
      "type": "function"
    },
    {
      "constant": false,
      "inputs": [
        {
          "name": "_name",
          "type": "string"
        }
      ],
      "name": "createRandomZombie",
      "outputs": [],
      "payable": false,
      "stateMutability": "nonpayable",
      "type": "function"
    },
    {
      "constant": true,
      "inputs": [],
      "name": "owner",
      "outputs": [
        {
          "name": "",
          "type": "address"
        }
      ],
      "payable": false,
      "stateMutability": "view",
      "type": "function"
    },
    {
      "constant": true,
      "inputs": [],
      "name": "getThisBalance",
      "outputs": [
        {
          "name": "",
          "type": "uint256"
        }
      ],
      "payable": false,
      "stateMutability": "view",
      "type": "function"
    },
    {
      "constant": true,
      "inputs": [],
      "name": "isOwner",
      "outputs": [
        {
          "name": "",
          "type": "bool"
        }
      ],
      "payable": false,
      "stateMutability": "view",
      "type": "function"
    },
    {
      "constant": false,
      "inputs": [
        {
          "name": "_zombieId",
          "type": "uint256"
        },
        {
          "name": "_newName",
          "type": "string"
        }
      ],
      "name": "changeName",
      "outputs": [],
      "payable": false,
      "stateMutability": "nonpayable",
      "type": "function"
    },
    {
      "constant": true,
      "inputs": [],
      "name": "levelUpFee",
      "outputs": [
        {
          "name": "",
          "type": "uint256"
        }
      ],
      "payable": false,
      "stateMutability": "view",
      "type": "function"
    },
    {
      "constant": false,
      "inputs": [
        {
          "name": "_fee",
          "type": "uint256"
        }
      ],
      "name": "setLevelUpFee",
      "outputs": [],
      "payable": false,
      "stateMutability": "nonpayable",
      "type": "function"
    },
    {
      "constant": false,
      "inputs": [
        {
          "name": "_zombieId",
          "type": "uint256"
        },
        {
          "name": "_targetId",
          "type": "uint256"
        }
      ],
      "name": "attack",
      "outputs": [],
      "payable": false,
      "stateMutability": "nonpayable",
      "type": "function"
    },
    {
      "constant": false,
      "inputs": [
        {
          "name": "newOwner",
          "type": "address"
        }
      ],
      "name": "transferOwnership",
      "outputs": [],
      "payable": false,
      "stateMutability": "nonpayable",
      "type": "function"
    },
    {
      "inputs": [],
      "payable": false,
      "stateMutability": "nonpayable",
      "type": "constructor"
    },
    {
      "anonymous": false,
      "inputs": [
        {
          "indexed": true,
          "name": "from",
          "type": "address"
        },
        {
          "indexed": true,
          "name": "to",
          "type": "address"
        },
        {
          "indexed": true,
          "name": "tokenId",
          "type": "uint256"
        }
      ],
      "name": "Transfer",
      "type": "event"
    },
    {
      "anonymous": false,
      "inputs": [
        {
          "indexed": true,
          "name": "owner",
          "type": "address"
        },
        {
          "indexed": true,
          "name": "approved",
          "type": "address"
        },
        {
          "indexed": true,
          "name": "tokenId",
          "type": "uint256"
        }
      ],
      "name": "Approval",
      "type": "event"
    },
    {
      "anonymous": false,
      "inputs": [
        {
          "indexed": true,
          "name": "owner",
          "type": "address"
        },
        {
          "indexed": true,
          "name": "operator",
          "type": "address"
        },
        {
          "indexed": false,
          "name": "approved",
          "type": "bool"
        }
      ],
      "name": "ApprovalForAll",
      "type": "event"
    },
    {
      "anonymous": false,
      "inputs": [
        {
          "indexed": false,
          "name": "_zombieId",
          "type": "uint256"
        },
        {
          "indexed": false,
          "name": "_tragetId",
          "type": "uint256"
        },
        {
          "indexed": false,
          "name": "won",
          "type": "bool"
        }
      ],
      "name": "Battle",
      "type": "event"
    },
    {
      "anonymous": false,
      "inputs": [
        {
          "indexed": false,
          "name": "zombieId",
          "type": "uint256"
        },
        {
          "indexed": false,
          "name": "name",
          "type": "string"
        },
        {
          "indexed": false,
          "name": "dna",
          "type": "uint256"
        }
      ],
      "name": "NewZombie",
      "type": "event"
    },
    {
      "anonymous": false,
      "inputs": [
        {
          "indexed": true,
          "name": "previousOwner",
          "type": "address"
        },
        {
          "indexed": true,
          "name": "newOwner",
          "type": "address"
        }
      ],
      "name": "OwnershipTransferred",
      "type": "event"
    },
    {
      "constant": true,
      "inputs": [
        {
          "name": "_owner",
          "type": "address"
        }
      ],
      "name": "balanceOf",
      "outputs": [
        {
          "name": "",
          "type": "uint256"
        }
      ],
      "payable": false,
      "stateMutability": "view",
      "type": "function"
    },
    {
      "constant": true,
      "inputs": [
        {
          "name": "_tokenId",
          "type": "uint256"
        }
      ],
      "name": "ownerOf",
      "outputs": [
        {
          "name": "",
          "type": "address"
        }
      ],
      "payable": false,
      "stateMutability": "view",
      "type": "function"
    },
    {
      "constant": false,
      "inputs": [
        {
          "name": "_approved",
          "type": "address"
        },
        {
          "name": "_tokenId",
          "type": "uint256"
        }
      ],
      "name": "approve",
      "outputs": [],
      "payable": true,
      "stateMutability": "payable",
      "type": "function"
    },
    {
      "constant": true,
      "inputs": [
        {
          "name": "_tokenId",
          "type": "uint256"
        }
      ],
      "name": "getApproved",
      "outputs": [
        {
          "name": "",
          "type": "address"
        }
      ],
      "payable": false,
      "stateMutability": "view",
      "type": "function"
    },
    {
      "constant": false,
      "inputs": [
        {
          "name": "_to",
          "type": "address"
        },
        {
          "name": "_approved",
          "type": "bool"
        }
      ],
      "name": "setApprovalForAll",
      "outputs": [],
      "payable": false,
      "stateMutability": "nonpayable",
      "type": "function"
    },
    {
      "constant": true,
      "inputs": [
        {
          "name": "_owner",
          "type": "address"
        },
        {
          "name": "_operator",
          "type": "address"
        }
      ],
      "name": "isApprovedForAll",
      "outputs": [
        {
          "name": "",
          "type": "bool"
        }
      ],
      "payable": false,
      "stateMutability": "view",
      "type": "function"
    },
    {
      "constant": false,
      "inputs": [
        {
          "name": "_from",
          "type": "address"
        },
        {
          "name": "_to",
          "type": "address"
        },
        {
          "name": "_tokenId",
          "type": "uint256"
        }
      ],
      "name": "transferFrom",
      "outputs": [],
      "payable": false,
      "stateMutability": "nonpayable",
      "type": "function"
    },
    {
      "constant": false,
      "inputs": [
        {
          "name": "_from",
          "type": "address"
        },
        {
          "name": "_to",
          "type": "address"
        },
        {
          "name": "_tokenId",
          "type": "uint256"
        }
      ],
      "name": "safeTransferFrom",
      "outputs": [],
      "payable": false,
      "stateMutability": "nonpayable",
      "type": "function"
    },
    {
      "constant": false,
      "inputs": [
        {
          "name": "_from",
          "type": "address"
        },
        {
          "name": "_to",
          "type": "address"
        },
        {
          "name": "_tokenId",
          "type": "uint256"
        },
        {
          "name": "_data",
          "type": "bytes"
        }
      ],
      "name": "safeTransferFrom",
      "outputs": [],
      "payable": false,
      "stateMutability": "nonpayable",
      "type": "function"
    }
  ],
  "bytecode": "0x60806040526010600155600154600a0a600255601e60035566038d7ea4c6800060085560006009556032600a553480156200003957600080fd5b50336000806101000a81548173ffffffffffffffffffffffffffffffffffffffff021916908373ffffffffffffffffffffffffffffffffffffffff1602179055506000809054906101000a900473ffffffffffffffffffffffffffffffffffffffff1673ffffffffffffffffffffffffffffffffffffffff16600073ffffffffffffffffffffffffffffffffffffffff167f8be0079c531659141344cd1fd0a4f28419497f9722a3daafe3b4186f6b6457e060405160405180910390a36200010e6301ffc9a760e01b6200012c60201b60201c565b620001266380ac58cd60e01b6200012c60201b60201c565b62000236565b63ffffffff60e01b817bffffffffffffffffffffffffffffffffffffffffffffffffffffffff19161415620001c9576040517f08c379a000000000000000000000000000000000000000000000000000000000815260040180806020018281038252601c8152602001807f4552433136353a20696e76616c696420696e746572666163652069640000000081525060200191505060405180910390fd5b6001600b6000837bffffffffffffffffffffffffffffffffffffffffffffffffffffffff19167bffffffffffffffffffffffffffffffffffffffffffffffffffffffff1916815260200190815260200160002060006101000a81548160ff02191690831515021790555050565b6138e080620002466000396000f3fe6080604052600436106101d85760003560e01c80636989bb4d11610102578063a22cb46511610095578063ccf670f811610064578063ccf670f814610df3578063e1fa763814610e2e578063e985e9c514610e73578063f2fde38b14610efc576101d8565b8063a22cb46514610bc9578063b88d4fde14610c26578063c39cbef114610d38578063c4114b1214610dc8576101d8565b80637bff0a01116100d15780637bff0a0114610a505780638da5cb5b14610b185780638e8cf4a814610b6f5780638f32d59b14610b9a576101d8565b80636989bb4d1461081c5780636b0bfc80146108f857806370a08231146109d4578063715018a614610a39576101d8565b80633ccfd60b1161017a578063528b7b8f11610149578063528b7b8f146106905780635f4623f11461070b5780635faf28801461075c5780636352211e146107a1576101d8565b80633ccfd60b1461050557806342842e0e1461051c5780634412e1041461059757806350df8f711461063d576101d8565b80630ce90ec2116101b65780630ce90ec21461031857806317a7f4cc146103465780632052465e1461038b57806323b872dd1461048a576101d8565b806301ffc9a7146101dd578063081812fc1461024f578063095ea7b3146102ca575b600080fd5b3480156101e957600080fd5b506102356004803603602081101561020057600080fd5b8101908080357bffffffffffffffffffffffffffffffffffffffffffffffffffffffff19169060200190929190505050610f4d565b604051808215151515815260200191505060405180910390f35b34801561025b57600080fd5b506102886004803603602081101561027257600080fd5b8101908080359060200190929190505050610fb5565b604051808273ffffffffffffffffffffffffffffffffffffffff1673ffffffffffffffffffffffffffffffffffffffff16815260200191505060405180910390f35b610316600480360360408110156102e057600080fd5b81019080803573ffffffffffffffffffffffffffffffffffffffff16906020019092919080359060200190929190505050611050565b005b6103446004803603602081101561032e57600080fd5b8101908080359060200190929190505050611296565b005b34801561035257600080fd5b506103896004803603604081101561036957600080fd5b81019080803590602001909291908035906020019092919050505061132b565b005b34801561039757600080fd5b506103c4600480360360208110156103ae57600080fd5b81019080803590602001909291905050506114b6565b60405180806020018781526020018663ffffffff1663ffffffff1681526020018563ffffffff1663ffffffff1681526020018461ffff1661ffff1681526020018361ffff1661ffff168152602001828103825288818151815260200191508051906020019080838360005b8381101561044a57808201518184015260208101905061042f565b50505050905090810190601f1680156104775780820380516001836020036101000a031916815260200191505b5097505050505050505060405180910390f35b34801561049657600080fd5b50610503600480360360608110156104ad57600080fd5b81019080803573ffffffffffffffffffffffffffffffffffffffff169060200190929190803573ffffffffffffffffffffffffffffffffffffffff169060200190929190803590602001909291905050506115d3565b005b34801561051157600080fd5b5061051a611642565b005b34801561052857600080fd5b506105956004803603606081101561053f57600080fd5b81019080803573ffffffffffffffffffffffffffffffffffffffff169060200190929190803573ffffffffffffffffffffffffffffffffffffffff16906020019092919080359060200190929190505050611729565b005b3480156105a357600080fd5b506105e6600480360360208110156105ba57600080fd5b81019080803573ffffffffffffffffffffffffffffffffffffffff169060200190929190505050611749565b6040518080602001828103825283818151815260200191508051906020019060200280838360005b8381101561062957808201518184015260208101905061060e565b505050509050019250505060405180910390f35b34801561064957600080fd5b506106766004803603602081101561066057600080fd5b810190808035906020019092919050505061187d565b604051808215151515815260200191505060405180910390f35b34801561069c57600080fd5b506106c9600480360360208110156106b357600080fd5b8101908080359060200190929190505050611916565b604051808273ffffffffffffffffffffffffffffffffffffffff1673ffffffffffffffffffffffffffffffffffffffff16815260200191505060405180910390f35b34801561071757600080fd5b5061075a6004803603602081101561072e57600080fd5b81019080803573ffffffffffffffffffffffffffffffffffffffff169060200190929190505050611949565b005b34801561076857600080fd5b5061079f6004803603604081101561077f57600080fd5b810190808035906020019092919080359060200190929190505050611a07565b005b3480156107ad57600080fd5b506107da600480360360208110156107c457600080fd5b8101908080359060200190929190505050611ae1565b604051808273ffffffffffffffffffffffffffffffffffffffff1673ffffffffffffffffffffffffffffffffffffffff16815260200191505060405180910390f35b34801561082857600080fd5b506108e26004803603602081101561083f57600080fd5b810190808035906020019064010000000081111561085c57600080fd5b82018360208201111561086e57600080fd5b8035906020019184600183028401116401000000008311171561089057600080fd5b91908080601f016020809104026020016040519081016040528093929190818152602001838380828437600081840152601f19601f820116905080830192505050505050509192919290505050611ba9565b6040518082815260200191505060405180910390f35b34801561090457600080fd5b506109d26004803603606081101561091b57600080fd5b8101908080359060200190929190803590602001909291908035906020019064010000000081111561094c57600080fd5b82018360208201111561095e57600080fd5b8035906020019184600183028401116401000000008311171561098057600080fd5b91908080601f016020809104026020016040519081016040528093929190818152602001838380828437600081840152601f19601f820116905080830192505050505050509192919290505050611c46565b005b3480156109e057600080fd5b50610a23600480360360208110156109f757600080fd5b81019080803573ffffffffffffffffffffffffffffffffffffffff169060200190929190505050611e2b565b6040518082815260200191505060405180910390f35b348015610a4557600080fd5b50610a4e611eb4565b005b348015610a5c57600080fd5b50610b1660048036036020811015610a7357600080fd5b8101908080359060200190640100000000811115610a9057600080fd5b820183602082011115610aa257600080fd5b80359060200191846001830284011164010000000083111715610ac457600080fd5b91908080601f016020809104026020016040519081016040528093929190818152602001838380828437600081840152601f19601f820116905080830192505050505050509192919290505050611f71565b005b348015610b2457600080fd5b50610b2d611fdf565b604051808273ffffffffffffffffffffffffffffffffffffffff1673ffffffffffffffffffffffffffffffffffffffff16815260200191505060405180910390f35b348015610b7b57600080fd5b50610b84612008565b6040518082815260200191505060405180910390f35b348015610ba657600080fd5b50610baf6120a1565b604051808215151515815260200191505060405180910390f35b348015610bd557600080fd5b50610c2460048036036040811015610bec57600080fd5b81019080803573ffffffffffffffffffffffffffffffffffffffff1690602001909291908035151590602001909291905050506120f8565b005b348015610c3257600080fd5b50610d3660048036036080811015610c4957600080fd5b81019080803573ffffffffffffffffffffffffffffffffffffffff169060200190929190803573ffffffffffffffffffffffffffffffffffffffff1690602001909291908035906020019092919080359060200190640100000000811115610cb057600080fd5b820183602082011115610cc257600080fd5b80359060200191846001830284011164010000000083111715610ce457600080fd5b91908080601f016020809104026020016040519081016040528093929190818152602001838380828437600081840152601f19601f82011690508083019250505050505050919291929050505061229b565b005b348015610d4457600080fd5b50610dc660048036036040811015610d5b57600080fd5b810190808035906020019092919080359060200190640100000000811115610d8257600080fd5b820183602082011115610d9457600080fd5b80359060200191846001830284011164010000000083111715610db657600080fd5b909192939192939050505061230c565b005b348015610dd457600080fd5b50610ddd6123f2565b6040518082815260200191505060405180910390f35b348015610dff57600080fd5b50610e2c60048036036020811015610e1657600080fd5b81019080803590602001909291905050506123f8565b005b348015610e3a57600080fd5b50610e7160048036036040811015610e5157600080fd5b81019080803590602001909291908035906020019092919050505061247c565b005b348015610e7f57600080fd5b50610ee260048036036040811015610e9657600080fd5b81019080803573ffffffffffffffffffffffffffffffffffffffff169060200190929190803573ffffffffffffffffffffffffffffffffffffffff1690602001909291905050506127a0565b604051808215151515815260200191505060405180910390f35b348015610f0857600080fd5b50610f4b60048036036020811015610f1f57600080fd5b81019080803573ffffffffffffffffffffffffffffffffffffffff169060200190929190505050612834565b005b6000600b6000837bffffffffffffffffffffffffffffffffffffffffffffffffffffffff19167bffffffffffffffffffffffffffffffffffffffffffffffffffffffff1916815260200190815260200160002060009054906101000a900460ff169050919050565b6000610fc0826128ba565b611015576040517f08c379a000000000000000000000000000000000000000000000000000000000815260040180806020018281038252602c81526020018061380e602c913960400191505060405180910390fd5b600d600083815260200190815260200160002060009054906101000a900473ffffffffffffffffffffffffffffffffffffffff169050919050565b806005600082815260200190815260200160002060009054906101000a900473ffffffffffffffffffffffffffffffffffffffff1673ffffffffffffffffffffffffffffffffffffffff163373ffffffffffffffffffffffffffffffffffffffff16146110bc57600080fd5b60006110c783611ae1565b90508073ffffffffffffffffffffffffffffffffffffffff168473ffffffffffffffffffffffffffffffffffffffff16141561114e576040517f08c379a00000000000000000000000000000000000000000000000000000000081526004018080602001828103825260218152602001806138636021913960400191505060405180910390fd5b8073ffffffffffffffffffffffffffffffffffffffff163373ffffffffffffffffffffffffffffffffffffffff16148061118e575061118d81336127a0565b5b6111e3576040517f08c379a00000000000000000000000000000000000000000000000000000000081526004018080602001828103825260388152602001806137ad6038913960400191505060405180910390fd5b83600d600085815260200190815260200160002060006101000a81548173ffffffffffffffffffffffffffffffffffffffff021916908373ffffffffffffffffffffffffffffffffffffffff160217905550828473ffffffffffffffffffffffffffffffffffffffff163373ffffffffffffffffffffffffffffffffffffffff167f8c5be1e5ebec7d5bd14f71427d1e84f3dd0314c0f7b2291e5b200ac8c7c3b92560405160405180910390a450505050565b60085434146112a457600080fd5b6112ec6001600483815481106112b657fe5b906000526020600020906003020160020160009054906101000a900463ffffffff1663ffffffff1661292c90919063ffffffff16565b600482815481106112f957fe5b906000526020600020906003020160020160006101000a81548163ffffffff021916908363ffffffff16021790555050565b6000600760009054906101000a900473ffffffffffffffffffffffffffffffffffffffff1673ffffffffffffffffffffffffffffffffffffffff1663e98b7f4d836040518263ffffffff1660e01b8152600401808281526020019150506101406040518083038186803b1580156113a157600080fd5b505afa1580156113b5573d6000803e3d6000fd5b505050506040513d6101408110156113cc57600080fd5b8101908080519060200190929190805190602001909291908051906020019092919080519060200190929190805190602001909291908051906020019092919080519060200190929190805190602001909291908051906020019092919080519060200190929190505050909192939495969798509091929394959697509091929394959650909192939495509091929394509091929350909192509091509050809150506114b183826040518060400160405280600581526020017f6b69747479000000000000000000000000000000000000000000000000000000815250611c46565b505050565b600481815481106114c357fe5b9060005260206000209060030201600091509050806000018054600181600116156101000203166002900480601f01602080910402602001604051908101604052809291908181526020018280546001816001161561010002031660029004801561156f5780601f106115445761010080835404028352916020019161156f565b820191906000526020600020905b81548152906001019060200180831161155257829003601f168201915b5050505050908060010154908060020160009054906101000a900463ffffffff16908060020160049054906101000a900463ffffffff16908060020160089054906101000a900461ffff169080600201600a9054906101000a900461ffff16905086565b6115dd3382612954565b611632576040517f08c379a00000000000000000000000000000000000000000000000000000000081526004018080602001828103825260318152602001806138846031913960400191505060405180910390fd5b61163d838383612a48565b505050565b61164a6120a1565b6116bc576040517f08c379a00000000000000000000000000000000000000000000000000000000081526004018080602001828103825260208152602001807f4f776e61626c653a2063616c6c6572206973206e6f7420746865206f776e657281525060200191505060405180910390fd5b60006116c6611fdf565b90508073ffffffffffffffffffffffffffffffffffffffff166108fc3073ffffffffffffffffffffffffffffffffffffffff16319081150290604051600060405180830381858888f19350505050158015611725573d6000803e3d6000fd5b5050565b6117448383836040518060200160405280600081525061229b565b505050565b606080611793600660008573ffffffffffffffffffffffffffffffffffffffff1673ffffffffffffffffffffffffffffffffffffffff168152602001908152602001600020612c48565b6040519080825280602002602001820160405280156117c15781602001602082028038833980820191505090505b509050600080905060008090505b600480549050811015611872578473ffffffffffffffffffffffffffffffffffffffff166005600083815260200190815260200160002060009054906101000a900473ffffffffffffffffffffffffffffffffffffffff1673ffffffffffffffffffffffffffffffffffffffff161415611865578083838151811061185057fe5b60200260200101818152505081806001019250505b80806001019150506117cf565b508192505050919050565b6000816005600082815260200190815260200160002060009054906101000a900473ffffffffffffffffffffffffffffffffffffffff1673ffffffffffffffffffffffffffffffffffffffff163373ffffffffffffffffffffffffffffffffffffffff16146118eb57600080fd5b61190e600484815481106118fb57fe5b9060005260206000209060030201612c56565b915050919050565b60056020528060005260406000206000915054906101000a900473ffffffffffffffffffffffffffffffffffffffff1681565b6119516120a1565b6119c3576040517f08c379a00000000000000000000000000000000000000000000000000000000081526004018080602001828103825260208152602001807f4f776e61626c653a2063616c6c6572206973206e6f7420746865206f776e657281525060200191505060405180910390fd5b80600760006101000a81548173ffffffffffffffffffffffffffffffffffffffff021916908373ffffffffffffffffffffffffffffffffffffffff16021790555050565b6014828160048281548110611a1857fe5b906000526020600020906003020160020160009054906101000a900463ffffffff1663ffffffff161015611a4b57600080fd5b836005600082815260200190815260200160002060009054906101000a900473ffffffffffffffffffffffffffffffffffffffff1673ffffffffffffffffffffffffffffffffffffffff163373ffffffffffffffffffffffffffffffffffffffff1614611ab757600080fd5b8360048681548110611ac557fe5b9060005260206000209060030201600101819055505050505050565b6000806005600084815260200190815260200160002060009054906101000a900473ffffffffffffffffffffffffffffffffffffffff169050600073ffffffffffffffffffffffffffffffffffffffff168173ffffffffffffffffffffffffffffffffffffffff161415611ba0576040517f08c379a00000000000000000000000000000000000000000000000000000000081526004018080602001828103825260298152602001806137e56029913960400191505060405180910390fd5b80915050919050565b600080826040516020018082805190602001908083835b60208310611be35780518252602082019150602081019050602083039250611bc0565b6001836020036101000a0380198251168184511680821785525050505050509050019150506040516020818303038152906040528051906020012060001c905060648181611c2d57fe5b06810390506002548181611c3d57fe5b06915050919050565b826005600082815260200190815260200160002060009054906101000a900473ffffffffffffffffffffffffffffffffffffffff1673ffffffffffffffffffffffffffffffffffffffff163373ffffffffffffffffffffffffffffffffffffffff1614611cb257600080fd5b600060048581548110611cc157fe5b90600052602060002090600302019050611cda81612c56565b611ce357600080fd5b60006002548581611cf057fe5b069050600060028284600101540181611d0557fe5b04905060405160200180807f6b69747479000000000000000000000000000000000000000000000000000000815250600501905060405160208183030381529060405280519060200120856040516020018082805190602001908083835b60208310611d865780518252602082019150602081019050602083039250611d63565b6001836020036101000a038019825116818451168082178552505050505050905001915050604051602081830303815290604052805190602001201415611dda57606360648281611dd357fe5b0682030190505b611e196040518060400160405280600681526020017f4e6f4e616d65000000000000000000000000000000000000000000000000000081525082612c7d565b611e2283612f00565b50505050505050565b60008073ffffffffffffffffffffffffffffffffffffffff168273ffffffffffffffffffffffffffffffffffffffff161415611e6657600080fd5b611ead600660008473ffffffffffffffffffffffffffffffffffffffff1673ffffffffffffffffffffffffffffffffffffffff168152602001908152602001600020612c48565b9050919050565b611ebc6120a1565b611f2e576040517f08c379a00000000000000000000000000000000000000000000000000000000081526004018080602001828103825260208152602001807f4f776e61626c653a2063616c6c6572206973206e6f7420746865206f776e657281525060200191505060405180910390fd5b60008060006101000a81548173ffffffffffffffffffffffffffffffffffffffff021916908373ffffffffffffffffffffffffffffffffffffffff160217905550565b6000611fba600660003373ffffffffffffffffffffffffffffffffffffffff1673ffffffffffffffffffffffffffffffffffffffff168152602001908152602001600020612c48565b14611fc457600080fd5b6000611fcf82611ba9565b9050611fdb8282612c7d565b5050565b60008060009054906101000a900473ffffffffffffffffffffffffffffffffffffffff16905090565b60006120126120a1565b612084576040517f08c379a00000000000000000000000000000000000000000000000000000000081526004018080602001828103825260208152602001807f4f776e61626c653a2063616c6c6572206973206e6f7420746865206f776e657281525060200191505060405180910390fd5b3073ffffffffffffffffffffffffffffffffffffffff1631905090565b60008060009054906101000a900473ffffffffffffffffffffffffffffffffffffffff1673ffffffffffffffffffffffffffffffffffffffff163373ffffffffffffffffffffffffffffffffffffffff1614905090565b3373ffffffffffffffffffffffffffffffffffffffff168273ffffffffffffffffffffffffffffffffffffffff16141561219a576040517f08c379a00000000000000000000000000000000000000000000000000000000081526004018080602001828103825260198152602001807f4552433732313a20617070726f766520746f2063616c6c65720000000000000081525060200191505060405180910390fd5b80600c60003373ffffffffffffffffffffffffffffffffffffffff1673ffffffffffffffffffffffffffffffffffffffff16815260200190815260200160002060008473ffffffffffffffffffffffffffffffffffffffff1673ffffffffffffffffffffffffffffffffffffffff16815260200190815260200160002060006101000a81548160ff0219169083151502179055508173ffffffffffffffffffffffffffffffffffffffff163373ffffffffffffffffffffffffffffffffffffffff167f17307eab39ab6107e8899845ad3d59bd9653f200f220920489ca2b5937696c3183604051808215151515815260200191505060405180910390a35050565b6122a53383612954565b6122fa576040517f08c379a00000000000000000000000000000000000000000000000000000000081526004018080602001828103825260318152602001806138846031913960400191505060405180910390fd5b61230684848484612f2a565b50505050565b600283816004828154811061231d57fe5b906000526020600020906003020160020160009054906101000a900463ffffffff1663ffffffff16101561235057600080fd5b846005600082815260200190815260200160002060009054906101000a900473ffffffffffffffffffffffffffffffffffffffff1673ffffffffffffffffffffffffffffffffffffffff163373ffffffffffffffffffffffffffffffffffffffff16146123bc57600080fd5b8484600488815481106123cb57fe5b906000526020600020906003020160000191906123e99291906135df565b50505050505050565b60085481565b6124006120a1565b612472576040517f08c379a00000000000000000000000000000000000000000000000000000000081526004018080602001828103825260208152602001807f4f776e61626c653a2063616c6c6572206973206e6f7420746865206f776e657281525060200191505060405180910390fd5b8060088190555050565b816005600082815260200190815260200160002060009054906101000a900473ffffffffffffffffffffffffffffffffffffffff1673ffffffffffffffffffffffffffffffffffffffff163373ffffffffffffffffffffffffffffffffffffffff16146124e857600080fd5b6000600484815481106124f757fe5b9060005260206000209060030201905060006004848154811061251657fe5b9060005260206000209060030201905060006125326064612f9c565b9050600a5481116126b25761256760018460020160089054906101000a900461ffff1661ffff1661303590919063ffffffff16565b8360020160086101000a81548161ffff021916908361ffff1602179055506125b360018460020160009054906101000a900463ffffffff1663ffffffff1661292c90919063ffffffff16565b8360020160006101000a81548163ffffffff021916908363ffffffff1602179055506125ff600183600201600a9054906101000a900461ffff1661ffff1661303590919063ffffffff16565b82600201600a6101000a81548161ffff021916908361ffff1602179055506126618683600101546040518060400160405280600681526020017f7a6f6d6269650000000000000000000000000000000000000000000000000000815250611c46565b7fbd91cd4722e62d0665827ee8a1ed60f8b182611ed2e7af4c99d485974891e949868660016040518084815260200183815260200182151515158152602001935050505060405180910390a1612798565b6126dc600184600201600a9054906101000a900461ffff1661ffff1661303590919063ffffffff16565b83600201600a6101000a81548161ffff021916908361ffff16021790555061272460018360020160089054906101000a900461ffff1661ffff1661303590919063ffffffff16565b8260020160086101000a81548161ffff021916908361ffff16021790555061274b83612f00565b7fbd91cd4722e62d0665827ee8a1ed60f8b182611ed2e7af4c99d485974891e949868660006040518084815260200183815260200182151515158152602001935050505060405180910390a15b505050505050565b6000600c60008473ffffffffffffffffffffffffffffffffffffffff1673ffffffffffffffffffffffffffffffffffffffff16815260200190815260200160002060008373ffffffffffffffffffffffffffffffffffffffff1673ffffffffffffffffffffffffffffffffffffffff16815260200190815260200160002060009054906101000a900460ff16905092915050565b61283c6120a1565b6128ae576040517f08c379a00000000000000000000000000000000000000000000000000000000081526004018080602001828103825260208152602001807f4f776e61626c653a2063616c6c6572206973206e6f7420746865206f776e657281525060200191505060405180910390fd5b6128b781613059565b50565b6000806005600084815260200190815260200160002060009054906101000a900473ffffffffffffffffffffffffffffffffffffffff169050600073ffffffffffffffffffffffffffffffffffffffff168173ffffffffffffffffffffffffffffffffffffffff161415915050919050565b60008082840190508363ffffffff168163ffffffff16101561294a57fe5b8091505092915050565b600061295f826128ba565b6129b4576040517f08c379a000000000000000000000000000000000000000000000000000000000815260040180806020018281038252602c815260200180613781602c913960400191505060405180910390fd5b60006129bf83611ae1565b90508073ffffffffffffffffffffffffffffffffffffffff168473ffffffffffffffffffffffffffffffffffffffff161480612a2e57508373ffffffffffffffffffffffffffffffffffffffff16612a1684610fb5565b73ffffffffffffffffffffffffffffffffffffffff16145b80612a3f5750612a3e81856127a0565b5b91505092915050565b8273ffffffffffffffffffffffffffffffffffffffff16612a6882611ae1565b73ffffffffffffffffffffffffffffffffffffffff1614612ad4576040517f08c379a000000000000000000000000000000000000000000000000000000000815260040180806020018281038252602981526020018061383a6029913960400191505060405180910390fd5b600073ffffffffffffffffffffffffffffffffffffffff168273ffffffffffffffffffffffffffffffffffffffff161415612b5a576040517f08c379a000000000000000000000000000000000000000000000000000000000815260040180806020018281038252602481526020018061375d6024913960400191505060405180910390fd5b612b6381613122565b612baa600660008473ffffffffffffffffffffffffffffffffffffffff1673ffffffffffffffffffffffffffffffffffffffff1681526020019081526020016000206131e0565b612bf1600660003373ffffffffffffffffffffffffffffffffffffffff1673ffffffffffffffffffffffffffffffffffffffff1681526020019081526020016000206131f6565b816005600083815260200190815260200160002060006101000a81548173ffffffffffffffffffffffffffffffffffffffff021916908373ffffffffffffffffffffffffffffffffffffffff160217905550505050565b600081600001549050919050565b6000428260020160049054906101000a900463ffffffff1663ffffffff1611159050919050565b6000600160046040518060c00160405280868152602001858152602001600163ffffffff168152602001600354420163ffffffff168152602001600061ffff168152602001600061ffff16815250908060018154018082558091505090600182039060005260206000209060030201600090919290919091506000820151816000019080519060200190612d1292919061365f565b506020820151816001015560408201518160020160006101000a81548163ffffffff021916908363ffffffff16021790555060608201518160020160046101000a81548163ffffffff021916908363ffffffff16021790555060808201518160020160086101000a81548161ffff021916908361ffff16021790555060a082015181600201600a6101000a81548161ffff021916908361ffff1602179055505050039050336005600083815260200190815260200160002060006101000a81548173ffffffffffffffffffffffffffffffffffffffff021916908373ffffffffffffffffffffffffffffffffffffffff160217905550612e4f600660003373ffffffffffffffffffffffffffffffffffffffff1673ffffffffffffffffffffffffffffffffffffffff1681526020019081526020016000206131e0565b7f88f026aacbbecc90c18411df4b1185fd8d9be2470f1962f192bf84a27d0704b78184846040518084815260200180602001838152602001828103825284818151815260200191508051906020019080838360005b83811015612ebf578082015181840152602081019050612ea4565b50505050905090810190601f168015612eec5780820380516001836020036101000a031916815260200191505b5094505050505060405180910390a1505050565b60035442018160020160046101000a81548163ffffffff021916908363ffffffff16021790555050565b612f35848484612a48565b612f4184848484613219565b612f96576040517f08c379a00000000000000000000000000000000000000000000000000000000081526004018080602001828103825260328152602001806137056032913960400191505060405180910390fd5b50505050565b6000612fb4600160095461340290919063ffffffff16565b600981905550814233600954604051602001808481526020018373ffffffffffffffffffffffffffffffffffffffff1673ffffffffffffffffffffffffffffffffffffffff1660601b815260140182815260200193505050506040516020818303038152906040528051906020012060001c8161302d57fe5b069050919050565b60008082840190508361ffff168161ffff16101561304f57fe5b8091505092915050565b600073ffffffffffffffffffffffffffffffffffffffff168173ffffffffffffffffffffffffffffffffffffffff1614156130df576040517f08c379a00000000000000000000000000000000000000000000000000000000081526004018080602001828103825260268152602001806137376026913960400191505060405180910390fd5b806000806101000a81548173ffffffffffffffffffffffffffffffffffffffff021916908373ffffffffffffffffffffffffffffffffffffffff16021790555050565b600073ffffffffffffffffffffffffffffffffffffffff16600d600083815260200190815260200160002060009054906101000a900473ffffffffffffffffffffffffffffffffffffffff1673ffffffffffffffffffffffffffffffffffffffff16146131dd576000600d600083815260200190815260200160002060006101000a81548173ffffffffffffffffffffffffffffffffffffffff021916908373ffffffffffffffffffffffffffffffffffffffff1602179055505b50565b6001816000016000828254019250508190555050565b61320e6001826000015461348a90919063ffffffff16565b816000018190555050565b600061323a8473ffffffffffffffffffffffffffffffffffffffff166134d4565b61324757600190506133fa565b60008473ffffffffffffffffffffffffffffffffffffffff1663150b7a02338887876040518563ffffffff1660e01b8152600401808573ffffffffffffffffffffffffffffffffffffffff1673ffffffffffffffffffffffffffffffffffffffff1681526020018473ffffffffffffffffffffffffffffffffffffffff1673ffffffffffffffffffffffffffffffffffffffff16815260200183815260200180602001828103825283818151815260200191508051906020019080838360005b83811015613322578082015181840152602081019050613307565b50505050905090810190601f16801561334f5780820380516001836020036101000a031916815260200191505b5095505050505050602060405180830381600087803b15801561337157600080fd5b505af1158015613385573d6000803e3d6000fd5b505050506040513d602081101561339b57600080fd5b8101908080519060200190929190505050905063150b7a0260e01b7bffffffffffffffffffffffffffffffffffffffffffffffffffffffff1916817bffffffffffffffffffffffffffffffffffffffffffffffffffffffff1916149150505b949350505050565b600080828401905083811015613480576040517f08c379a000000000000000000000000000000000000000000000000000000000815260040180806020018281038252601b8152602001807f536166654d6174683a206164646974696f6e206f766572666c6f77000000000081525060200191505060405180910390fd5b8091505092915050565b60006134cc83836040518060400160405280601e81526020017f536166654d6174683a207375627472616374696f6e206f766572666c6f77000081525061351f565b905092915050565b60008060007fc5d2460186f7233c927e7db2dcc703c0e500b653ca82273b7bfad8045d85a47060001b9050833f91506000801b82141580156135165750808214155b92505050919050565b60008383111582906135cc576040517f08c379a00000000000000000000000000000000000000000000000000000000081526004018080602001828103825283818151815260200191508051906020019080838360005b83811015613591578082015181840152602081019050613576565b50505050905090810190601f1680156135be5780820380516001836020036101000a031916815260200191505b509250505060405180910390fd5b5060008385039050809150509392505050565b828054600181600116156101000203166002900490600052602060002090601f016020900481019282601f1061362057803560ff191683800117855561364e565b8280016001018555821561364e579182015b8281111561364d578235825591602001919060010190613632565b5b50905061365b91906136df565b5090565b828054600181600116156101000203166002900490600052602060002090601f016020900481019282601f106136a057805160ff19168380011785556136ce565b828001600101855582156136ce579182015b828111156136cd5782518255916020019190600101906136b2565b5b5090506136db91906136df565b5090565b61370191905b808211156136fd5760008160009055506001016136e5565b5090565b9056fe4552433732313a207472616e7366657220746f206e6f6e20455243373231526563656976657220696d706c656d656e7465724f776e61626c653a206e6577206f776e657220697320746865207a65726f20616464726573734552433732313a207472616e7366657220746f20746865207a65726f20616464726573734552433732313a206f70657261746f7220717565727920666f72206e6f6e6578697374656e7420746f6b656e4552433732313a20617070726f76652063616c6c6572206973206e6f74206f776e6572206e6f7220617070726f76656420666f7220616c6c4552433732313a206f776e657220717565727920666f72206e6f6e6578697374656e7420746f6b656e4552433732313a20617070726f76656420717565727920666f72206e6f6e6578697374656e7420746f6b656e4552433732313a207472616e73666572206f6620746f6b656e2074686174206973206e6f74206f776e4552433732313a20617070726f76616c20746f2063757272656e74206f776e65724552433732313a207472616e736665722063616c6c6572206973206e6f74206f776e6572206e6f7220617070726f766564a165627a7a72305820de8e76f478887fa81a4b3294457576c1c1355deffd1455b3e7e89fce4200735a0029",
  "source": "pragma solidity ^0.5.0;\n\nimport \"./zombieattack.sol\";\n//import \"./erc721.sol\";\nimport \"./safemath.sol\";\nimport \"./IERC721.sol\";\nimport \"./IERC721Receiver.sol\";\nimport \"./Address.sol\";\nimport \"./ERC165.sol\";\n// import \"./Counters.sol\";\n\ncontract ZombieOwnership is ZombieAttack, ERC165, IERC721 {\n\n  using SafeMath for uint256;\n  using Address for address;\n  // using Counters for Counters.Counter;\n\n  bytes4 private constant _ERC721_RECEIVED = 0x150b7a02;\n  // mapping (uint256 => address) private _tokenOwner; // is zombieToOwner\n  // mapping (uint256 => address) private _tokenApprovals; // is zombieApprovals\n  // mapping (address => Counters.Counter) private _ownedTokenCount; // is ownerZombieCount\n  mapping (address => mapping(address => bool)) private _operatorApprovals;\n  bytes4 private constant _INTERFACE_ID_ERC721 = 0x80ac58cd;\n\n  constructor () public {\n      // register the supported interfaces to conform to ERC721 via ERC165\n      _registerInterface(_INTERFACE_ID_ERC721);\n  }\n\n  mapping (uint => address) zombieApprovals;\n\n  function balanceOf(address _owner) public view returns (uint256) {\n    require(_owner != address(0));\n    return ownerZombieCount[_owner].current();\n  }\n\n  function ownerOf(uint256 _tokenId) public view returns (address) {\n    address owner = zombieToOwner[_tokenId];\n    require(owner != address(0), \"ERC721: owner query for nonexistent token\");\n    return owner;\n  }\n\n  function approve(address _approved, uint256 _tokenId) public payable onlyOwnerOf(_tokenId) {\n      address owner = ownerOf(_tokenId);\n      require(_approved != owner, \"ERC721: approval to current owner\");\n\n      require(msg.sender == owner || isApprovedForAll(owner, msg.sender),\n      \"ERC721: approve caller is not owner nor approved for all\");\n      zombieApprovals[_tokenId] = _approved;\n      emit Approval(msg.sender, _approved, _tokenId);\n    }\n\n  function getApproved(uint256 _tokenId) public view returns (address){\n      require(_exists(_tokenId), \"ERC721: approved query for nonexistent token\");\n      return zombieApprovals[_tokenId];\n  }\n\n  function setApprovalForAll(address _to, bool _approved) public {\n    require(_to != msg.sender, \"ERC721: approve to caller\");\n\n    _operatorApprovals[msg.sender][_to] = _approved;\n    emit ApprovalForAll(msg.sender, _to, _approved);\n  }\n\n  function isApprovedForAll(address _owner, address _operator) public view returns (bool) {\n        return _operatorApprovals[_owner][_operator];\n  }\n\n  function _isApprovedOrOwner(address _spender, uint256 _tokenId) internal view returns (bool) {\n        require(_exists(_tokenId), \"ERC721: operator query for nonexistent token\");\n        address _owner = ownerOf(_tokenId);\n        return (_spender == _owner || getApproved(_tokenId) == _spender || isApprovedForAll(_owner, _spender));\n  }\n\n  function _exists(uint256 _tokenId) internal view returns (bool) {\n      address owner = zombieToOwner[_tokenId];\n      return owner != address(0);\n  }\n\n  function transferFrom(address _from, address _to, uint256 _tokenId) public{\n      require(_isApprovedOrOwner(msg.sender, _tokenId), \"ERC721: transfer caller is not owner nor approved\");\n      _transferFrom(_from, _to, _tokenId);\n  }\n\n  function _transferFrom(address _from, address _to, uint256 _tokenId) internal{\n      require(ownerOf(_tokenId) == _from, \"ERC721: transfer of token that is not own\");\n      require(_to != address(0), \"ERC721: transfer to the zero address\");\n\n    _clearApproval(_tokenId);\n    ownerZombieCount[_to].increment();\n    ownerZombieCount[msg.sender].decrement();\n    zombieToOwner[_tokenId] = _to;\n\n    //emit Transfer(_from, _to, _tokenId);\n  }\n\n  function _clearApproval(uint256 _tokenId) private {\n      if(zombieApprovals[_tokenId] != address(0)) {\n          zombieApprovals[_tokenId] = address(0);\n      }\n  }\n\n  function safeTransferFrom(address _from, address _to, uint256 _tokenId, bytes memory _data)\n  public {\n      require(_isApprovedOrOwner(msg.sender, _tokenId), \"ERC721: transfer caller is not owner nor approved\");\n      _safeTransferFrom(_from, _to, _tokenId, _data);\n  }\n\n  function _safeTransferFrom(address _from, address _to, uint256 _tokenId, bytes memory _data) internal{\n      _transferFrom(_from, _to, _tokenId);\n      require(_checkOnERC721Received(_from, _to, _tokenId, _data), \"ERC721: transfer to non ERC721Receiver implementer\");\n  }\n\n  function safeTransferFrom(address _from, address _to, uint256 _tokenId) public {\n        safeTransferFrom(_from, _to, _tokenId, \"\");\n  }\n\n  function _checkOnERC721Received(address _from, address _to, uint256 _tokenId, bytes memory _data)\n      internal returns (bool)\n  {\n      if (!_to.isContract()) {\n          return true;\n      }\n\n      bytes4 retval = IERC721Receiver(_to).onERC721Received(msg.sender, _from, _tokenId, _data);\n      return (retval == _ERC721_RECEIVED);\n  }\n}\n",
  "sourcePath": "/Users/cobaltsato/Desktop/blockchainCodeCamp/chapter15/truffle/contracts/zombieownership.sol",
  "compiler": {
    "name": "solc",
    "version": "0.5.8+commit.23d335f2.Emscripten.clang"
  },
  "schemaVersion": "3.0.11",
  "updatedAt": "2019-08-25T10:26:29.588Z",
  "devdoc": {
    "methods": {
      "isOwner()": {
        "details": "Returns true if the caller is the current owner."
      },
      "owner()": {
        "details": "Returns the address of the current owner."
      },
      "renounceOwnership()": {
        "details": "Leaves the contract without owner. It will not be possible to call `onlyOwner` functions anymore. Can only be called by the current owner.     * NOTE: Renouncing ownership will leave the contract without an owner, thereby removing any functionality that is only available to the owner."
      },
      "supportsInterface(bytes4)": {
        "details": "See {IERC165-supportsInterface}.     * Time complexity O(1), guaranteed to always use less than 30 000 gas."
      },
      "transferOwnership(address)": {
        "details": "Transfers ownership of the contract to a new account (`newOwner`). Can only be called by the current owner."
      }
    }
  },
  "userdoc": {
    "methods": {}
  }
}